:020000040800F2
:10000000005000203D0100083901000839010008B6
:10001000000000003901000839010008000000005C
:10002000000000000000000000000000390100088E
:1000300039010008000000003901000839010008FA
:1000400000000000000000000000000000000000B0
:1000500000000000000000000000000000000000A0
:100060000000000000000000000000000000000090
:100070000000000000000000000000000000000080
:100080000000000000000000000000000000000070
:100090000000000000000000000000000000000060
:1000A0000000000000000000000000000000000050
:1000B0000000000000000000000000000000000040
:1000C0000000000000000000000000000000000030
:1000D0000000000000000000000000000000000020
:1000E0000000000000000000000000000000000010
:1000F0000000000000000000000000000000000000
:1001000000000000000000000000000000000000EF
:1001100000000000000000000000000000000000DF
:1001200000000000000000000000000000000000CF
:04013000F8B500BF5F
:04013400F8B500BF5B
:02013800FEE7E0
:10013C0008B50D480D4BC01A002304E00C4A995C1D
:10014C000A4A995401338342F8D30A480A4BC01A1D
:10015C00002303E0084A0021995401338342F9D368
:10016C0000F00CF808BD00BF0000002000000020CB
:0C017C00300100080000002000000020FE
:0801880008B500F001F808BD04
:100190000F4B1A6842F001021A6059680D4A0A4072
:1001A0005A601A6822F0847222F480321A601A6847
:1001B00022F480221A605A6822F4FE025A604FF438
:1001C0001F029A60044B4FF000629A60704700BFB4
:0C01D000001002400000FFF800ED00E00D
:040000050800013DB1
:00000001FF
